:020000040800F2
:1000000018040020010100086D02000865020008C4
:1000100069020008490100080B0700080000000001
:100020000000000000000000000000008503000840
:100030004D010008000000006F0200087504000870
:100040001B0100081B0100081B0100081B01000820
:100050001B0100081B0100081B0100081B01000810
:100060001B0100081B0100081B0100081B01000800
:100070001B0100081B0100081B0100081B010008F0
:100080001B0100081B0100081B0100081B010008E0
:100090001B0100081B0100081B0100081B010008D0
:1000A0001B0100081B0100081B0100081B010008C0
:1000B0001B0100081B0100081B0100081B010008B0
:1000C0001B0100081B0100081B0100081B010008A0
:1000D0001B0100081B010008790500081B0100082E
:1000E0001B0100081B0100081B010008DFF80CD0F1
:1000F00000F018F8004800476D07000818040020B9
:100100000648804706480047FEE7FEE7FEE7FEE7B1
:10011000FEE7FEE7FEE7FEE7FEE7FEE779040008FC
:10012000ED000008064C074D06E0E06840F00103D2
:1001300094E8070098471034AC42F6D3FFF7DAFF93
:1001400088070008A807000800BFFEE770472DE9F0
:10015000F04102460025002600200023002400274D
:1001600091F803C00CF00F0591F803C00CF0100CCF
:10017000BCF1000F03D091F802C04CEA050591F8DC
:1001800000C0BCF1000F31D0146800202BE04FF00C
:10019000010C0CFA00F3B1F800C00CEA03069E4211
:1001A00020D183004FF00F0C0CFA03F7BC4305FA83
:1001B00003FC4CEA040491F803C0BCF1280F06D1FB
:1001C0004FF0010C0CFA00FCC2F814C00AE091F8E0
:1001D00003C0BCF1480F05D14FF0010C0CFA00FC34
:1001E000C2F810C0401C0828D1D31460B1F800C078
:1001F000BCF1FF0F34DD546800202EE000F1080C44
:100200004FF0010808FA0CF3B1F800C00CEA03063D
:100210009E4221D183004FF00F0C0CFA03F7BC4330
:1002200005FA03FC4CEA040491F803C0BCF1280F62
:1002300005D100F1080C08FA0CF8C2F8148091F806
:1002400003C0BCF1480F07D100F1080C4FF00108C2
:1002500008FA0CF8C2F81080401C0828CED354606D
:10026000BDE8F08100BFFEE700BFFEE770477047C2
:1002700029B1064AD2690243044BDA6104E0034A19
:10028000D2698243014BDA617047000000100240DE
:1002900029B1064A92690243044B9A6104E0034A79
:1002A00092698243014B9A6170470000001002403E
:1002B00030B500210022002400232D4D6D6805F08B
:1002C0000C0121B1042905D0082923D105E0294DCD
:1002D000056022E0274D05601FE0254D6D6805F49F
:1002E0007012234D6D6805F48034022505EB9242AF
:1002F0001CB9214D554305600BE01D4D6D6805F49B
:1003000000351DB11C4D5543056002E0194D5543A4
:10031000056002E0174D056000BF00BF144D6D6819
:1003200005F0F0010909154D6B5C0568DD4045607D
:100330000F4D6D6805F4E061090A104D6B5C45686E
:10034000DD4085600A4D6D6805F46051C90A0B4DAA
:100350006B5C4568DD40C560054D6D6805F4404146
:10036000890B074D6B5CC568B5FBF3F5056130BDC6
:100370000010024000127A0000093D000400002035
:1003800014000020704710B500F002F810BD000006
:100390000CB50020019000903448006840F4803093
:1003A0003249086000BF3148006800F40030009016
:1003B0000198401C0190009818B90198B0F5A06F01
:1003C000F1D12A48006800F4003010B101200090FB
:1003D00001E0002000900098012844D124480068E2
:1003E00040F01000224908600846006820F0030031
:1003F00008600846006840F0020008601B4840683A
:100400001A4948600846406848600846406840F419
:10041000806048600846406820F47C1048600846C8
:10042000406840F4E81048600846006840F080707A
:10043000086000BF0D48006800F000700028F9D087
:100440000A48406820F003000849486008464068B0
:1004500040F00200486000BF0448406800F00C0013
:100460000828F9D101E000BFFEE70CBD00100240F2
:10047000002002407047000010B51148006840F0AD
:1004800001000F490860084640680E4908400C49C1
:100490004860084600680C49084009490860084659
:1004A000006820F4802008600846406820F4FE00C0
:1004B00048604FF41F008860FFF765FF10BD000023
:1004C000001002400000FFF8FFFFF6FE10B586B0F6
:1004D000044601210520FFF7DBFE01214804FFF758
:1004E000C7FE0420ADF8140018208DF81700032073
:1004F0008DF8160005A91E48FFF729FE0820ADF863
:10050000140004208DF8170005A91948FFF71FFEF5
:1005100001940020ADF80800ADF80A00ADF80C0019
:10052000ADF810000C20ADF80E0001A9114800F044
:1005300093F8012240F225510E4800F067F801229D
:1005400040F227710B4800F061F80121094800F0E2
:1005500027F8262000F01F02012191404209920055
:1005600002F1E022C2F8001100BF06B010BD000089
:10057000000801400044004010B540F225510748F2
:1005800000F01AF840B1054800F0B6F8041E03D098
:100590002146024800F0B5F810BD000000440040BC
:1005A00021B1828942F40052828104E082894DF6B1
:1005B000FF731A408281704770B502460024002301
:1005C0000025002040F66A16B14200D100BFC1F3F9
:1005D000421501F01F03012606FA03F3012D02D193
:1005E0009689334006E0022D02D1168A334001E09D
:1005F000968A33400C12012606FA04F41688344019
:1006000013B10CB1012000E0002070BDF0B503462D
:10061000002400260025002040F66A17B94200D1C8
:1006200000BF1846C1F3421401F01F06012707FA64
:1006300006F5012C01D10C3004E0022C01D1103060
:1006400000E014301AB107682F43076002E0076822
:10065000AF430760F0BD00002DE9F04786B00546C6
:100660000E460024A24600BF00BF0027B08900B19B
:1006700000BF2F462C8A4CF6FF700440F0880443DC
:100680002C82AC894EF6F3100440B08831890843BF
:10069000718908430443AC81AC8A4FF6FF400440A3
:1006A000B0890443AC8201A8FFF702FE11488742DB
:1006B00002D1DDF810A001E0DDF80CA00AEBCA00C1
:1006C00000EB0A1031688900B0FBF1F86420B8FB38
:1006D000F0F004012009642101FB1089322000EBB5
:1006E0000910B0FBF1F000F00F0004432C8106B0BC
:1006F000BDE8F0870038014001468888C0F3080053
:100700007047C1F308028280704700BFFEE702E035
:1007100008C8121F08C1002AFAD17047704700208C
:1007200001E001C1121F002AFBD170474FF0E02108
:10073000096921F004014FF0E0221161C21700EBBA
:100740005272C2F3C702074B1A701946097801EBBF
:100750004102C2EBC1114FF6FF7202EAC101024A27
:1007600011807047000000200200002000BF00BF81
:10077000FFF782FE4820FFF7D9FF4FF41650FFF72E
:10078000A5FE00BFFEE70000A8070008000000204B
:10079000180000000E070008C0070008180000201D
:1007A000000400001E070008000000000000000018
:1007B00001020304010203040607080902040608F3
:04000005080000ED02
:00000001FF
