:020000040800F2
:10000000680600208901000891010008930100089A
:100010009501000897010008990100080000000000
:100020000000000000000000000000009B0100082C
:100030009D010008000000009F010008A1010008C8
:10004000A3010008A3010008A3010008A301000800
:10005000A3010008A3010008A3010008A3010008F0
:10006000A301000855020008A3010008A30100082D
:10007000A3010008A3010008A3010008A3010008D0
:10008000A3010008A3010008A3010008A3010008C0
:10009000A3010008A3010008A3010008A3010008B0
:1000A000A3010008A3010008A3010008A3010008A0
:1000B000A3010008A3010008A3010008A301000890
:1000C000A3010008A3010008A3010008A301000880
:1000D000A3010008A3010008A3010008A301000870
:1000E000A3010008A3010008A301000800F002F822
:1000F00000F03AF80AA090E8000C82448344AAF188
:100100000107DA4501D100F02FF8AFF2090EBAE885
:100110000F0013F0010F18BFFB1A43F0010318473B
:10012000C8040000E8040000103A24BF78C878C171
:10013000FAD8520724BF30C830C144BF04680C60ED
:10014000704700000023002400250026103A28BF35
:1001500078C1FBD8520728BF30C148BF0B60704739
:100160001FB51FBD10B510BD00F031F81146FFF7E7
:10017000F7FF00F021FA00F04FF803B4FFF7F2FFA9
:1001800003BC00F057F800000948804709480047C1
:10019000FEE7FEE7FEE7FEE7FEE7FEE7FEE7FEE737
:1001A000FEE7FEE704480549054A064B7047000094
:1001B00065050008ED0000086800002068060020C2
:1001C000680200206802002070477047704775463B
:1001D00000F02CF8AE4605006946534620F00700B3
:1001E000854618B020B5FFF7DDFFBDE820404FF091
:1001F00000064FF000074FF000084FF0000B21F011
:100200000701AC46ACE8C009ACE8C009ACE8C009DD
:10021000ACE8C0098D46704710B50446AFF30080C6
:100220002046BDE81040FFF7A8BF00000048704717
:100230000800002001491820ABBEFEE7260002009E
:10024000704701B500BF0098411E00910028FAD107
:1002500008BD000010B5082000F032F810B31248B5
:100260000088C8301049088008460088B0F57A7FB9
:1002700001DD002008800D4800880B4909880844EA
:100280000A49088049140A4800F0B9F8C0F1010091
:10029000C4B222464FF40051054800F0BDF80820D2
:1002A00000F008F810BD000000000020342C0140D0
:1002B000001001400149086070470000140401402B
:1002C000014600200022074B1B6803EA0102054B90
:1002D00014331B680B4013B10AB1012000E0002069
:1002E00070470000000401402DE9F041024600255E
:1002F0000026002000230024002791F803C00CF002
:100300000F0591F803C00CF0100CBCF1000F03D0E6
:1003100091F802C04CEA050591F800C0BCF1000F4D
:1003200031D0146800202BE04FF0010C0CFA00F3E0
:10033000B1F800C00CEA03069E4220D183004FF0C2
:100340000F0C0CFA03F7BC4305FA03FC4CEA040457
:1003500091F803C0BCF1280F06D14FF0010C0CFA44
:1003600000FCC2F814C00AE091F803C0BCF1480FC9
:1003700005D14FF0010C0CFA00FCC2F810C0401C73
:100380000828D1D31460B1F800C0BCF1FF0F34DDF0
:10039000546800202EE000F1080C4FF0010808FA24
:1003A0000CF3B1F800C00CEA03069E4221D1830091
:1003B0004FF00F0C0CFA03F7BC4305FA03FC4CEAB0
:1003C000040491F803C0BCF1280F05D100F1080C1A
:1003D00008FA0CF8C2F8148091F803C0BCF1480F79
:1003E00007D100F1080C4FF0010808FA0CF8C2F828
:1003F0001080401C0828CED35460BDE8F08102462E
:100400000020D3680B400BB1012000E000207047B2
:1004100041617047016170470AB1016100E04161CB
:100420007047000008B50121102000F015F80121E7
:10043000092000F011F84FF40050ADF80000012041
:100440008DF8020010208DF8030069460148FFF77F
:100450004BFF08BD0010014029B1064A92690243D2
:10046000044B9A6104E0034A92698243014B9A610A
:10047000704700000010024010B500F001F810BDF8
:100480000CB50020019000903448006840F48030A2
:100490003249086000BF3148006800F40030009025
:1004A0000198401C0190009818B90198B0F5A06F10
:1004B000F1D12A48006800F4003010B1012000900A
:1004C00001E0002000900098012844D124480068F1
:1004D00040F01000224908600846006820F0030040
:1004E00008600846006840F0020008601B48406849
:1004F0001A4948600846406848600846406840F429
:10050000806048600846406820F47C1048600846D7
:10051000406840F4E81048600846006840F0807089
:10052000086000BF0D48006800F000700028F9D096
:100530000A48406820F003000849486008464068BF
:1005400040F00200486000BF0448406800F00C0022
:100550000828F9D101E000BFFEE70CBD0010024001
:100560000020024010B51148006840F001000F491A
:100570000860084640680E4908400C494860084633
:1005800000680C490840094908600846006820F4E2
:10059000802008600846406820F4FE0048604FF460
:1005A0001F008860FFF768FF10BD000000100240C8
:1005B0000000FFF8FFFFF6FEFFF734FF0FE04FF4F7
:1005C00000510748FFF724FF0648FFF73AFE4FF4B3
:1005D00000510348FFF71EFF0248FFF732FEEEE727
:1005E00000100140809698000806000800000020D6
:1005F000080000002801000810060008080000207C
:100600006006000044010008000000000000000037
:04000005080000ED02
:00000001FF
